{
  "_format": "hh-sol-artifact-1",
  "contractName": "Company",
  "sourceName": "contracts/Company.sol",
  "abi": [
    {
      "inputs": [
        {
          "internalType": "address[]",
          "name": "_boardmembers",
          "type": "address[]"
        },
        {
          "internalType": "address",
          "name": "_CEO",
          "type": "address"
        },
        {
          "internalType": "uint256",
          "name": "_acceptance",
          "type": "uint256"
        }
      ],
      "stateMutability": "payable",
      "type": "constructor"
    },
    {
      "anonymous": false,
      "inputs": [
        {
          "indexed": false,
          "internalType": "address",
          "name": "oldCEO",
          "type": "address"
        },
        {
          "indexed": false,
          "internalType": "address",
          "name": "newCEO",
          "type": "address"
        }
      ],
      "name": "CEOchange",
      "type": "event"
    },
    {
      "anonymous": false,
      "inputs": [
        {
          "indexed": false,
          "internalType": "string",
          "name": "reason",
          "type": "string"
        },
        {
          "indexed": false,
          "internalType": "uint256",
          "name": "amount",
          "type": "uint256"
        },
        {
          "indexed": false,
          "internalType": "uint256",
          "name": "timestamp",
          "type": "uint256"
        }
      ],
      "name": "FundAccepted",
      "type": "event"
    },
    {
      "anonymous": false,
      "inputs": [
        {
          "indexed": false,
          "internalType": "string",
          "name": "reason",
          "type": "string"
        },
        {
          "indexed": false,
          "internalType": "uint256",
          "name": "amount",
          "type": "uint256"
        },
        {
          "indexed": false,
          "internalType": "uint256",
          "name": "timestamp",
          "type": "uint256"
        }
      ],
      "name": "FundRaised",
      "type": "event"
    },
    {
      "anonymous": false,
      "inputs": [
        {
          "indexed": false,
          "internalType": "string",
          "name": "reason",
          "type": "string"
        },
        {
          "indexed": false,
          "internalType": "uint256",
          "name": "amount",
          "type": "uint256"
        },
        {
          "indexed": false,
          "internalType": "uint256",
          "name": "timestamp",
          "type": "uint256"
        }
      ],
      "name": "FundRejected",
      "type": "event"
    },
    {
      "anonymous": false,
      "inputs": [
        {
          "indexed": false,
          "internalType": "uint256",
          "name": "amount",
          "type": "uint256"
        },
        {
          "indexed": false,
          "internalType": "uint256",
          "name": "timestamp",
          "type": "uint256"
        },
        {
          "indexed": false,
          "internalType": "address",
          "name": "to",
          "type": "address"
        }
      ],
      "name": "FundsTransfered",
      "type": "event"
    },
    {
      "inputs": [
        {
          "internalType": "bool",
          "name": "vote",
          "type": "bool"
        }
      ],
      "name": "changeCEO",
      "outputs": [],
      "stateMutability": "nonpayable",
      "type": "function"
    },
    {
      "inputs": [],
      "name": "getBalance",
      "outputs": [
        {
          "internalType": "uint256",
          "name": "",
          "type": "uint256"
        }
      ],
      "stateMutability": "view",
      "type": "function"
    },
    {
      "inputs": [],
      "name": "getCEO",
      "outputs": [
        {
          "internalType": "address",
          "name": "",
          "type": "address"
        }
      ],
      "stateMutability": "view",
      "type": "function"
    },
    {
      "inputs": [],
      "name": "getFailedFunds",
      "outputs": [
        {
          "components": [
            {
              "internalType": "string",
              "name": "reason",
              "type": "string"
            },
            {
              "internalType": "uint256",
              "name": "amount",
              "type": "uint256"
            },
            {
              "internalType": "uint256",
              "name": "timestamp",
              "type": "uint256"
            },
            {
              "internalType": "uint256",
              "name": "votedMembers",
              "type": "uint256"
            },
            {
              "internalType": "bool",
              "name": "isused",
              "type": "bool"
            }
          ],
          "internalType": "struct Company.Fund[]",
          "name": "",
          "type": "tuple[]"
        }
      ],
      "stateMutability": "view",
      "type": "function"
    },
    {
      "inputs": [],
      "name": "getPendingRaiseFunds",
      "outputs": [
        {
          "components": [
            {
              "internalType": "string",
              "name": "reason",
              "type": "string"
            },
            {
              "internalType": "uint256",
              "name": "amount",
              "type": "uint256"
            },
            {
              "internalType": "uint256",
              "name": "timestamp",
              "type": "uint256"
            },
            {
              "internalType": "uint256",
              "name": "votedMembers",
              "type": "uint256"
            },
            {
              "internalType": "bool",
              "name": "isused",
              "type": "bool"
            }
          ],
          "internalType": "struct Company.Fund[]",
          "name": "",
          "type": "tuple[]"
        }
      ],
      "stateMutability": "view",
      "type": "function"
    },
    {
      "inputs": [],
      "name": "getSuccesfullFunds",
      "outputs": [
        {
          "components": [
            {
              "internalType": "string",
              "name": "reason",
              "type": "string"
            },
            {
              "internalType": "uint256",
              "name": "amount",
              "type": "uint256"
            },
            {
              "internalType": "uint256",
              "name": "timestamp",
              "type": "uint256"
            },
            {
              "internalType": "uint256",
              "name": "votedMembers",
              "type": "uint256"
            },
            {
              "internalType": "bool",
              "name": "isused",
              "type": "bool"
            }
          ],
          "internalType": "struct Company.Fund[]",
          "name": "",
          "type": "tuple[]"
        }
      ],
      "stateMutability": "view",
      "type": "function"
    },
    {
      "inputs": [],
      "name": "getlength",
      "outputs": [
        {
          "internalType": "uint256",
          "name": "",
          "type": "uint256"
        }
      ],
      "stateMutability": "view",
      "type": "function"
    },
    {
      "inputs": [
        {
          "internalType": "address",
          "name": "member",
          "type": "address"
        }
      ],
      "name": "isMember",
      "outputs": [
        {
          "internalType": "bool",
          "name": "",
          "type": "bool"
        }
      ],
      "stateMutability": "view",
      "type": "function"
    },
    {
      "inputs": [],
      "name": "listofBoardMembers",
      "outputs": [
        {
          "internalType": "address[]",
          "name": "",
          "type": "address[]"
        }
      ],
      "stateMutability": "view",
      "type": "function"
    },
    {
      "inputs": [
        {
          "internalType": "string",
          "name": "reason",
          "type": "string"
        },
        {
          "internalType": "uint256",
          "name": "amount",
          "type": "uint256"
        }
      ],
      "name": "raiseFund",
      "outputs": [
        {
          "internalType": "uint256",
          "name": "",
          "type": "uint256"
        }
      ],
      "stateMutability": "nonpayable",
      "type": "function"
    },
    {
      "inputs": [
        {
          "internalType": "address",
          "name": "member",
          "type": "address"
        }
      ],
      "name": "setnextCEO",
      "outputs": [],
      "stateMutability": "nonpayable",
      "type": "function"
    },
    {
      "inputs": [
        {
          "internalType": "uint256",
          "name": "timestamp",
          "type": "uint256"
        },
        {
          "internalType": "uint256",
          "name": "index",
          "type": "uint256"
        },
        {
          "internalType": "bool",
          "name": "vote",
          "type": "bool"
        }
      ],
      "name": "voteRaiseFund",
      "outputs": [],
      "stateMutability": "nonpayable",
      "type": "function"
    },
    {
      "inputs": [
        {
          "internalType": "uint256",
          "name": "index",
          "type": "uint256"
        },
        {
          "internalType": "address",
          "name": "to",
          "type": "address"
        }
      ],
      "name": "withdrawRaisedFund",
      "outputs": [],
      "stateMutability": "payable",
      "type": "function"
    },
    {
      "stateMutability": "payable",
      "type": "receive"
    }
  ],
  "bytecode": "0x60a0604052604051620039ae380380620039ae8339818101604052810190620000299190620003fa565b60058351101562000071576040517f08c379a00000000000000000000000000000000000000000000000000000000081526004016200006890620004d6565b60405180910390fd5b6028811015620000b8576040517f08c379a0000000000000000000000000000000000000000000000000000000008152600401620000af9062000548565b60405180910390fd5b8260089080519060200190620000d092919062000123565b5081600960006101000a81548173ffffffffffffffffffffffffffffffffffffffff021916908373ffffffffffffffffffffffffffffffffffffffff16021790555080608081815250505050506200056a565b8280548282559060005260206000209081019282156200019f579160200282015b828111156200019e5782518260006101000a81548173ffffffffffffffffffffffffffffffffffffffff021916908373ffffffffffffffffffffffffffffffffffffffff1602179055509160200191906001019062000144565b5b509050620001ae9190620001b2565b5090565b5b80821115620001cd576000816000905550600101620001b3565b5090565b6000604051905090565b600080fd5b600080fd5b600080fd5b6000601f19601f8301169050919050565b7f4e487b7100000000000000000000000000000000000000000000000000000000600052604160045260246000fd5b6200023582620001ea565b810181811067ffffffffffffffff82111715620002575762000256620001fb565b5b80604052505050565b60006200026c620001d1565b90506200027a82826200022a565b919050565b600067ffffffffffffffff8211156200029d576200029c620001fb565b5b602082029050602081019050919050565b600080fd5b600073ffffffffffffffffffffffffffffffffffffffff82169050919050565b6000620002e082620002b3565b9050919050565b620002f281620002d3565b8114620002fe57600080fd5b50565b6000815190506200031281620002e7565b92915050565b60006200032f62000329846200027f565b62000260565b90508083825260208201905060208402830185811115620003555762000354620002ae565b5b835b818110156200038257806200036d888262000301565b84526020840193505060208101905062000357565b5050509392505050565b600082601f830112620003a457620003a3620001e5565b5b8151620003b684826020860162000318565b91505092915050565b6000819050919050565b620003d481620003bf565b8114620003e057600080fd5b50565b600081519050620003f481620003c9565b92915050565b600080600060608486031215620004165762000415620001db565b5b600084015167ffffffffffffffff811115620004375762000436620001e0565b5b62000445868287016200038c565b9350506020620004588682870162000301565b92505060406200046b86828701620003e3565b9150509250925092565b600082825260208201905092915050565b7f4d696e203520426f617264204d656d6265727300000000000000000000000000600082015250565b6000620004be60138362000475565b9150620004cb8262000486565b602082019050919050565b60006020820190508181036000830152620004f181620004af565b9050919050565b7f6d696e203430252073686f756c64206163636570740000000000000000000000600082015250565b60006200053060158362000475565b91506200053d82620004f8565b602082019050919050565b60006020820190508181036000830152620005638162000521565b9050919050565b6080516134136200059b60003960008181610b4d01528181610d930152818161138d01526117fb01526134136000f3fe6080604052600436106100c65760003560e01c8063550c0eb91161007f578063a16d359811610059578063a16d359814610252578063a230c5241461027d578063c5c8c25d146102ba578063c8b0e68d146102e5576100cd565b8063550c0eb9146101e2578063701c0f061461020d5780637c0feb2614610229576100cd565b806312065fe0146100d257806317fba212146100fd5780631dd9c41a1461013a5780631e0686cb146101655780631fb661df146101905780632e0abcb6146101b9576100cd565b366100cd57005b600080fd5b3480156100de57600080fd5b506100e7610310565b6040516100f49190612150565b60405180910390f35b34801561010957600080fd5b50610124600480360381019061011f91906122f1565b610331565b6040516101319190612150565b60405180910390f35b34801561014657600080fd5b5061014f610517565b60405161015c919061243d565b60405180910390f35b34801561017157600080fd5b5061017a6105be565b6040516101879190612640565b60405180910390f35b34801561019c57600080fd5b506101b760048036038101906101b2919061268e565b610701565b005b3480156101c557600080fd5b506101e060048036038101906101db91906126e7565b610829565b005b3480156101ee57600080fd5b506101f7610e30565b6040516102049190612640565b60405180910390f35b61022760048036038101906102229190612714565b610f73565b005b34801561023557600080fd5b50610250600480360381019061024b9190612754565b6111d3565b005b34801561025e57600080fd5b50610267611bf7565b6040516102749190612150565b60405180910390f35b34801561028957600080fd5b506102a4600480360381019061029f919061268e565b611c04565b6040516102b191906127b6565b60405180910390f35b3480156102c657600080fd5b506102cf611ce8565b6040516102dc9190612640565b60405180910390f35b3480156102f157600080fd5b506102fa611e34565b60405161030791906127e0565b60405180910390f35b600061031c6001611e5e565b61032b5761032933611c04565b505b47905090565b600061033d6000611e5e565b5047821115610381576040517f08c379a000000000000000000000000000000000000000000000000000000000815260040161037890612858565b60405180910390fd5b60006040518060a00160405280858152602001848152602001428152602001600181526020016000151581525090506103bd8160800151611f58565b600281908060018154018082558091505060019003906000526020600020906005020160009091909190915060008201518160000190816103fe9190612a84565b5060208201518160010155604082015181600201556060820151816003015560808201518160040160006101000a81548160ff02191690831515021790555050506001600660008360400151815260200190815260200160002060003373ffffffffffffffffffffffffffffffffffffffff1673ffffffffffffffffffffffffffffffffffffffff16815260200190815260200160002060006101000a81548160ff02191690831515021790555060016007600083604001518152602001908152602001600020819055507fc2c1dd22ccd74042bb1839a341a380b900234ef0edd1de24c746fb3b243fd8788484836040015160405161050093929190612b8f565b60405180910390a160028054905091505092915050565b60606105236001611e5e565b6105325761053033611c04565b505b60088054806020026020016040519081016040528092919081815260200182805480156105b457602002820191906000526020600020905b8160009054906101000a900473ffffffffffffffffffffffffffffffffffffffff1673ffffffffffffffffffffffffffffffffffffffff168152602001906001019080831161056a575b5050505050905090565b60606105ca6001611e5e565b6105d9576105d733611c04565b505b6001805480602002602001604051908101604052809291908181526020016000905b828210156106f857838290600052602060002090600502016040518060a001604052908160008201805461062e906128a7565b80601f016020809104026020016040519081016040528092919081815260200182805461065a906128a7565b80156106a75780601f1061067c576101008083540402835291602001916106a7565b820191906000526020600020905b81548152906001019060200180831161068a57829003601f168201915b505050505081526020016001820154815260200160028201548152602001600382015481526020016004820160009054906101000a900460ff161515151581525050815260200190600101906105fb565b50505050905090565b600a60009054906101000a900473ffffffffffffffffffffffffffffffffffffffff1673ffffffffffffffffffffffffffffffffffffffff16600073ffffffffffffffffffffffffffffffffffffffff1614610792576040517f08c379a000000000000000000000000000000000000000000000000000000000815260040161078990612c19565b60405180910390fd5b61079b33611c04565b506107a66000611e5e565b6107e5576040517f08c379a00000000000000000000000000000000000000000000000000000000081526004016107dc90612c85565b60405180910390fd5b80600a60006101000a81548173ffffffffffffffffffffffffffffffffffffffff021916908373ffffffffffffffffffffffffffffffffffffffff16021790555050565b6108336001611e5e565b15610873576040517f08c379a000000000000000000000000000000000000000000000000000000000815260040161086a90612cf1565b60405180910390fd5b600073ffffffffffffffffffffffffffffffffffffffff16600a60009054906101000a900473ffffffffffffffffffffffffffffffffffffffff1673ffffffffffffffffffffffffffffffffffffffff1603610904576040517f08c379a00000000000000000000000000000000000000000000000000000000081526004016108fb90612d5d565b60405180910390fd5b61090d33611c04565b5060036000600960009054906101000a900473ffffffffffffffffffffffffffffffffffffffff1673ffffffffffffffffffffffffffffffffffffffff1673ffffffffffffffffffffffffffffffffffffffff16815260200190815260200160002060003373ffffffffffffffffffffffffffffffffffffffff1673ffffffffffffffffffffffffffffffffffffffff16815260200190815260200160002060009054906101000a900460ff16156109fa576040517f08c379a00000000000000000000000000000000000000000000000000000000081526004016109f190612dc9565b60405180910390fd5b600160036000600960009054906101000a900473ffffffffffffffffffffffffffffffffffffffff1673ffffffffffffffffffffffffffffffffffffffff1673ffffffffffffffffffffffffffffffffffffffff16815260200190815260200160002060003373ffffffffffffffffffffffffffffffffffffffff1673ffffffffffffffffffffffffffffffffffffffff16815260200190815260200160002060006101000a81548160ff0219169083151502179055508015610b3157600160046000600960009054906101000a900473ffffffffffffffffffffffffffffffffffffffff1673ffffffffffffffffffffffffffffffffffffffff1673ffffffffffffffffffffffffffffffffffffffff1681526020019081526020016000206000828254610b299190612e18565b925050819055505b600160056000828254610b449190612e18565b925050819055507f000000000000000000000000000000000000000000000000000000000000000060088054905060046000600960009054906101000a900473ffffffffffffffffffffffffffffffffffffffff1673ffffffffffffffffffffffffffffffffffffffff1673ffffffffffffffffffffffffffffffffffffffff168152602001908152602001600020546064610be09190612e4c565b610bea9190612ebd565b10610d1e577f430339c957f7f1f8ca89a5a2a031d19c1cf40833c3cfbeb301a561c11519aa14600960009054906101000a900473ffffffffffffffffffffffffffffffffffffffff16600a60009054906101000a900473ffffffffffffffffffffffffffffffffffffffff16604051610c64929190612eee565b60405180910390a1600a60009054906101000a900473ffffffffffffffffffffffffffffffffffffffff16600960006101000a81548173ffffffffffffffffffffffffffffffffffffffff021916908373ffffffffffffffffffffffffffffffffffffffff1602179055506000600a60006101000a81548173ffffffffffffffffffffffffffffffffffffffff021916908373ffffffffffffffffffffffffffffffffffffffff1602179055506000600581905550610e2d565b600060046000600960009054906101000a900473ffffffffffffffffffffffffffffffffffffffff1673ffffffffffffffffffffffffffffffffffffffff1673ffffffffffffffffffffffffffffffffffffffff16815260200190815260200160002054600554610d8f9190612f17565b90507f00000000000000000000000000000000000000000000000000000000000000006064610dbe9190612f17565b600880549050826064610dd19190612e4c565b610ddb9190612ebd565b10610e2b576000600a60006101000a81548173ffffffffffffffffffffffffffffffffffffffff021916908373ffffffffffffffffffffffffffffffffffffffff16021790555060006005819055505b505b50565b6060610e3c6001611e5e565b610e4b57610e4933611c04565b505b6002805480602002602001604051908101604052809291908181526020016000905b82821015610f6a57838290600052602060002090600502016040518060a0016040529081600082018054610ea0906128a7565b80601f0160208091040260200160405190810160405280929190818152602001828054610ecc906128a7565b8015610f195780601f10610eee57610100808354040283529160200191610f19565b820191906000526020600020905b815481529060010190602001808311610efc57829003601f168201915b505050505081526020016001820154815260200160028201548152602001600382015481526020016004820160009054906101000a900460ff16151515158152505081526020019060010190610e6d565b50505050905090565b600180549050821015610fbb576040517f08c379a0000000000000000000000000000000000000000000000000000000008152600401610fb290612f97565b60405180910390fd5b60018281548110610fcf57610fce612fb7565b5b906000526020600020906005020160040160009054906101000a900460ff161561102e576040517f08c379a000000000000000000000000000000000000000000000000000000000815260040161102590613032565b60405180910390fd5b476001838154811061104357611042612fb7565b5b9060005260206000209060050201600101541015611096576040517f08c379a000000000000000000000000000000000000000000000000000000000815260040161108d9061309e565b60405180910390fd5b6110a06000611e5e565b508073ffffffffffffffffffffffffffffffffffffffff166108fc600184815481106110cf576110ce612fb7565b5b9060005260206000209060050201600101549081150290604051600060405180830381858888f1935050505015801561110c573d6000803e3d6000fd5b50600180838154811061112257611121612fb7565b5b906000526020600020906005020160040160006101000a81548160ff0219169083151502179055507fdf546d9e8a0d1da259b593d60a75e8f7448a72080bf5502b790ceb4cc22a51e06001838154811061117f5761117e612fb7565b5b906000526020600020906005020160010154600184815481106111a5576111a4612fb7565b5b906000526020600020906005020160020154836040516111c7939291906130be565b60405180910390a15050565b6111dc33611c04565b506006600084815260200190815260200160002060003373ffffffffffffffffffffffffffffffffffffffff1673ffffffffffffffffffffffffffffffffffffffff16815260200190815260200160002060009054906101000a900460ff161561127b576040517f08c379a000000000000000000000000000000000000000000000000000000000815260040161127290613141565b60405180910390fd5b60016002838154811061129157611290612fb7565b5b906000526020600020906005020160030160008282546112b19190612e18565b9250508190555060016006600085815260200190815260200160002060003373ffffffffffffffffffffffffffffffffffffffff1673ffffffffffffffffffffffffffffffffffffffff16815260200190815260200160002060006101000a81548160ff021916908315150217905550801561135357600160076000858152602001908152602001600020600082825461134b9190612e18565b925050819055505b61138b6008805490506064600760008781526020019081526020016000205461137c9190612e4c565b6113869190612ebd565b611ff1565b7f0000000000000000000000000000000000000000000000000000000000000000600880549050606460076000878152602001908152602001600020546113d29190612e4c565b6113dc9190612ebd565b1061178c576001600283815481106113f7576113f6612fb7565b5b90600052602060002090600502019080600181540180825580915050600190039060005260206000209060050201600090919091909150600082018160000190816114429190613177565b506001820154816001015560028201548160020155600382015481600301556004820160009054906101000a900460ff168160040160006101000a81548160ff02191690831515021790555050508160016002805490506114a39190612f17565b036115145760028054806114ba576114b961325f565b5b6001900381819060005260206000209060050201600080820160006114df91906120d0565b6001820160009055600282016000905560038201600090556004820160006101000a81549060ff021916905550509055611634565b600260016002805490506115289190612f17565b8154811061153957611538612fb7565b5b90600052602060002090600502016002838154811061155b5761155a612fb7565b5b90600052602060002090600502016000820181600001908161157d9190613177565b506001820154816001015560028201548160020155600382015481600301556004820160009054906101000a900460ff168160040160006101000a81548160ff02191690831515021790555090505060028054806115de576115dd61325f565b5b60019003818190600052602060002090600502016000808201600061160391906120d0565b6001820160009055600282016000905560038201600090556004820160006101000a81549060ff0219169055505090555b600060018080805490506116489190612f17565b8154811061165957611658612fb7565b5b90600052602060002090600502016040518060a0016040529081600082018054611682906128a7565b80601f01602080910402602001604051908101604052809291908181526020018280546116ae906128a7565b80156116fb5780601f106116d0576101008083540402835291602001916116fb565b820191906000526020600020905b8154815290600101906020018083116116de57829003601f168201915b505050505081526020016001820154815260200160028201548152602001600382015481526020016004820160009054906101000a900460ff16151515158152505090507fcb7cef30ebb80bcfcf69420814edf2dc4a9a91cf8066b3a4a319c67228fb8ad181600001518260200151836040015160405161177e93929190612b8f565b60405180910390a150611bf2565b60006007600085815260200190815260200160002054600284815481106117b6576117b5612fb7565b5b9060005260206000209060050201600301546117d29190612f17565b90506117f96008805490506064836117ea9190612e4c565b6117f49190612ebd565b611ff1565b7f000000000000000000000000000000000000000000000000000000000000000060646118269190612f17565b6008805490506064836118399190612e4c565b6118439190612ebd565b10611bf05760006002848154811061185e5761185d612fb7565b5b90600052602060002090600502019080600181540180825580915050600190039060005260206000209060050201600090919091909150600082018160000190816118a99190613177565b506001820154816001015560028201548160020155600382015481600301556004820160009054906101000a900460ff168160040160006101000a81548160ff021916908315150217905550505082600160028054905061190a9190612f17565b0361197b5760028054806119215761192061325f565b5b60019003818190600052602060002090600502016000808201600061194691906120d0565b6001820160009055600282016000905560038201600090556004820160006101000a81549060ff021916905550509055611a9b565b6002600160028054905061198f9190612f17565b815481106119a05761199f612fb7565b5b9060005260206000209060050201600284815481106119c2576119c1612fb7565b5b9060005260206000209060050201600082018160000190816119e49190613177565b506001820154816001015560028201548160020155600382015481600301556004820160009054906101000a900460ff168160040160006101000a81548160ff0219169083151502179055509050506002805480611a4557611a4461325f565b5b600190038181906000526020600020906005020160008082016000611a6a91906120d0565b6001820160009055600282016000905560038201600090556004820160006101000a81549060ff0219169055505090555b6000806001600080549050611ab09190612f17565b81548110611ac157611ac0612fb7565b5b90600052602060002090600502016040518060a0016040529081600082018054611aea906128a7565b80601f0160208091040260200160405190810160405280929190818152602001828054611b16906128a7565b8015611b635780601f10611b3857610100808354040283529160200191611b63565b820191906000526020600020905b815481529060010190602001808311611b4657829003601f168201915b505050505081526020016001820154815260200160028201548152602001600382015481526020016004820160009054906101000a900460ff16151515158152505090507ff8d395925b7473a68cba2a5aa65c337b2245b79b7d188215d6f7f4de8fdb92d8816000015182602001518360400151604051611be693929190612b8f565b60405180910390a1505b505b505050565b6000600280549050905090565b600080600090505b600880549050811015611ca7578273ffffffffffffffffffffffffffffffffffffffff1660088281548110611c4457611c43612fb7565b5b9060005260206000200160009054906101000a900473ffffffffffffffffffffffffffffffffffffffff1673ffffffffffffffffffffffffffffffffffffffff1603611c94576001915050611ce3565b8080611c9f9061328e565b915050611c0c565b506040517f08c379a0000000000000000000000000000000000000000000000000000000008152600401611cda90613322565b60405180910390fd5b919050565b6060611cf46001611e5e565b611d0357611d0133611c04565b505b611d0c5a611ff1565b6000805480602002602001604051908101604052809291908181526020016000905b82821015611e2b57838290600052602060002090600502016040518060a0016040529081600082018054611d61906128a7565b80601f0160208091040260200160405190810160405280929190818152602001828054611d8d906128a7565b8015611dda5780601f10611daf57610100808354040283529160200191611dda565b820191906000526020600020905b815481529060010190602001808311611dbd57829003601f168201915b505050505081526020016001820154815260200160028201548152602001600382015481526020016004820160009054906101000a900460ff16151515158152505081526020019060010190611d2e565b50505050905090565b6000600960009054906101000a900473ffffffffffffffffffffffffffffffffffffffff16905090565b60008115611ebe57600960009054906101000a900473ffffffffffffffffffffffffffffffffffffffff1673ffffffffffffffffffffffffffffffffffffffff163373ffffffffffffffffffffffffffffffffffffffff16149050611f53565b600960009054906101000a900473ffffffffffffffffffffffffffffffffffffffff1673ffffffffffffffffffffffffffffffffffffffff163373ffffffffffffffffffffffffffffffffffffffff1614611f4e576040517f08c379a0000000000000000000000000000000000000000000000000000000008152600401611f459061338e565b60405180910390fd5b600190505b919050565b611fee81604051602401611f6c91906127b6565b6040516020818303038152906040527f32458eed000000000000000000000000000000000000000000000000000000007bffffffffffffffffffffffffffffffffffffffffffffffffffffffff19166020820180517bffffffffffffffffffffffffffffffffffffffffffffffffffffffff838183161783525050505061208a565b50565b612087816040516024016120059190612150565b6040516020818303038152906040527ff82c50f1000000000000000000000000000000000000000000000000000000007bffffffffffffffffffffffffffffffffffffffffffffffffffffffff19166020820180517bffffffffffffffffffffffffffffffffffffffffffffffffffffffff838183161783525050505061208a565b50565b6120a1816120996120a46120c5565b63ffffffff16565b50565b60006a636f6e736f6c652e6c6f679050600080835160208501845afa505050565b612110819050919050565b5080546120dc906128a7565b6000825580601f106120ee575061210d565b601f01602090049060005260206000209081019061210c919061211a565b5b50565b6121186133ae565b565b5b8082111561213357600081600090555060010161211b565b5090565b6000819050919050565b61214a81612137565b82525050565b60006020820190506121656000830184612141565b92915050565b6000604051905090565b600080fd5b600080fd5b600080fd5b600080fd5b6000601f19601f8301169050919050565b7f4e487b7100000000000000000000000000000000000000000000000000000000600052604160045260246000fd5b6121d282612189565b810181811067ffffffffffffffff821117156121f1576121f061219a565b5b80604052505050565b600061220461216b565b905061221082826121c9565b919050565b600067ffffffffffffffff8211156122305761222f61219a565b5b61223982612189565b9050602081019050919050565b82818337600083830152505050565b600061226861226384612215565b6121fa565b90508281526020810184848401111561228457612283612184565b5b61228f848285612246565b509392505050565b600082601f8301126122ac576122ab61217f565b5b81356122bc848260208601612255565b91505092915050565b6122ce81612137565b81146122d957600080fd5b50565b6000813590506122eb816122c5565b92915050565b6000806040838503121561230857612307612175565b5b600083013567ffffffffffffffff8111156123265761232561217a565b5b61233285828601612297565b9250506020612343858286016122dc565b9150509250929050565b600081519050919050565b600082825260208201905092915050565b6000819050602082019050919050565b600073ffffffffffffffffffffffffffffffffffffffff82169050919050565b60006123a482612379565b9050919050565b6123b481612399565b82525050565b60006123c683836123ab565b60208301905092915050565b6000602082019050919050565b60006123ea8261234d565b6123f48185612358565b93506123ff83612369565b8060005b8381101561243057815161241788826123ba565b9750612422836123d2565b925050600181019050612403565b5085935050505092915050565b6000602082019050818103600083015261245781846123df565b905092915050565b600081519050919050565b600082825260208201905092915050565b6000819050602082019050919050565b600081519050919050565b600082825260208201905092915050565b60005b838110156124c55780820151818401526020810190506124aa565b60008484015250505050565b60006124dc8261248b565b6124e68185612496565b93506124f68185602086016124a7565b6124ff81612189565b840191505092915050565b61251381612137565b82525050565b60008115159050919050565b61252e81612519565b82525050565b600060a083016000830151848203600086015261255182826124d1565b9150506020830151612566602086018261250a565b506040830151612579604086018261250a565b50606083015161258c606086018261250a565b50608083015161259f6080860182612525565b508091505092915050565b60006125b68383612534565b905092915050565b6000602082019050919050565b60006125d68261245f565b6125e0818561246a565b9350836020820285016125f28561247b565b8060005b8581101561262e578484038952815161260f85826125aa565b945061261a836125be565b925060208a019950506001810190506125f6565b50829750879550505050505092915050565b6000602082019050818103600083015261265a81846125cb565b905092915050565b61266b81612399565b811461267657600080fd5b50565b60008135905061268881612662565b92915050565b6000602082840312156126a4576126a3612175565b5b60006126b284828501612679565b91505092915050565b6126c481612519565b81146126cf57600080fd5b50565b6000813590506126e1816126bb565b92915050565b6000602082840312156126fd576126fc612175565b5b600061270b848285016126d2565b91505092915050565b6000806040838503121561272b5761272a612175565b5b6000612739858286016122dc565b925050602061274a85828601612679565b9150509250929050565b60008060006060848603121561276d5761276c612175565b5b600061277b868287016122dc565b935050602061278c868287016122dc565b925050604061279d868287016126d2565b9150509250925092565b6127b081612519565b82525050565b60006020820190506127cb60008301846127a7565b92915050565b6127da81612399565b82525050565b60006020820190506127f560008301846127d1565b92915050565b600082825260208201905092915050565b7f696e73756666696369656e742062616c616e6365000000000000000000000000600082015250565b60006128426014836127fb565b915061284d8261280c565b602082019050919050565b6000602082019050818103600083015261287181612835565b9050919050565b7f4e487b7100000000000000000000000000000000000000000000000000000000600052602260045260246000fd5b600060028204905060018216806128bf57607f821691505b6020821081036128d2576128d1612878565b5b50919050565b60008190508160005260206000209050919050565b60006020601f8301049050919050565b600082821b905092915050565b60006008830261293a7fffffffffffffffffffffffffffffffffffffffffffffffffffffffffffffffff826128fd565b61294486836128fd565b95508019841693508086168417925050509392505050565b6000819050919050565b600061298161297c61297784612137565b61295c565b612137565b9050919050565b6000819050919050565b61299b83612966565b6129af6129a782612988565b84845461290a565b825550505050565b600090565b6129c46129b7565b6129cf818484612992565b505050565b5b818110156129f3576129e86000826129bc565b6001810190506129d5565b5050565b601f821115612a3857612a09816128d8565b612a12846128ed565b81016020851015612a21578190505b612a35612a2d856128ed565b8301826129d4565b50505b505050565b600082821c905092915050565b6000612a5b60001984600802612a3d565b1980831691505092915050565b6000612a748383612a4a565b9150826002028217905092915050565b612a8d8261248b565b67ffffffffffffffff811115612aa657612aa561219a565b5b612ab082546128a7565b612abb8282856129f7565b600060209050601f831160018114612aee5760008415612adc578287015190505b612ae68582612a68565b865550612b4e565b601f198416612afc866128d8565b60005b82811015612b2457848901518255600182019150602085019450602081019050612aff565b86831015612b415784890151612b3d601f891682612a4a565b8355505b6001600288020188555050505b505050505050565b6000612b618261248b565b612b6b81856127fb565b9350612b7b8185602086016124a7565b612b8481612189565b840191505092915050565b60006060820190508181036000830152612ba98186612b56565b9050612bb86020830185612141565b612bc56040830184612141565b949350505050565b7f6e65787443454f20736574746564000000000000000000000000000000000000600082015250565b6000612c03600e836127fb565b9150612c0e82612bcd565b602082019050919050565b60006020820190508181036000830152612c3281612bf6565b9050919050565b7f43454f2063616e27742063616c6c207468697300000000000000000000000000600082015250565b6000612c6f6013836127fb565b9150612c7a82612c39565b602082019050919050565b60006020820190508181036000830152612c9e81612c62565b9050919050565b7f43454f2063616e277420766f7465000000000000000000000000000000000000600082015250565b6000612cdb600e836127fb565b9150612ce682612ca5565b602082019050919050565b60006020820190508181036000830152612d0a81612cce565b9050919050565b7f706c6561736520736574206e6578742043454f00000000000000000000000000600082015250565b6000612d476013836127fb565b9150612d5282612d11565b602082019050919050565b60006020820190508181036000830152612d7681612d3a565b9050919050565b7f616c726561647920766f74656400000000000000000000000000000000000000600082015250565b6000612db3600d836127fb565b9150612dbe82612d7d565b602082019050919050565b60006020820190508181036000830152612de281612da6565b9050919050565b7f4e487b7100000000000000000000000000000000000000000000000000000000600052601160045260246000fd5b6000612e2382612137565b9150612e2e83612137565b9250828201905080821115612e4657612e45612de9565b5b92915050565b6000612e5782612137565b9150612e6283612137565b9250828202612e7081612137565b91508282048414831517612e8757612e86612de9565b5b5092915050565b7f4e487b7100000000000000000000000000000000000000000000000000000000600052601260045260246000fd5b6000612ec882612137565b9150612ed383612137565b925082612ee357612ee2612e8e565b5b828204905092915050565b6000604082019050612f0360008301856127d1565b612f1060208301846127d1565b9392505050565b6000612f2282612137565b9150612f2d83612137565b9250828203905081811115612f4557612f44612de9565b5b92915050565b7f6e6f742076616c69640000000000000000000000000000000000000000000000600082015250565b6000612f816009836127fb565b9150612f8c82612f4b565b602082019050919050565b60006020820190508181036000830152612fb081612f74565b9050919050565b7f4e487b7100000000000000000000000000000000000000000000000000000000600052603260045260246000fd5b7f616c726561647920757365640000000000000000000000000000000000000000600082015250565b600061301c600c836127fb565b915061302782612fe6565b602082019050919050565b6000602082019050818103600083015261304b8161300f565b9050919050565b7f496e2d53756666696369656e742046756e647300000000000000000000000000600082015250565b60006130886013836127fb565b915061309382613052565b602082019050919050565b600060208201905081810360008301526130b78161307b565b9050919050565b60006060820190506130d36000830186612141565b6130e06020830185612141565b6130ed60408301846127d1565b949350505050565b7f766f746564210000000000000000000000000000000000000000000000000000600082015250565b600061312b6006836127fb565b9150613136826130f5565b602082019050919050565b6000602082019050818103600083015261315a8161311e565b9050919050565b600081549050613170816128a7565b9050919050565b81810361318557505061325d565b61318e82613161565b67ffffffffffffffff8111156131a7576131a661219a565b5b6131b182546128a7565b6131bc8282856129f7565b6000601f8311600181146131eb57600084156131d9578287015490505b6131e38582612a68565b865550613256565b601f1984166131f9876128d8565b9650613204866128d8565b60005b8281101561322c57848901548255600182019150600185019450602081019050613207565b868310156132495784890154613245601f891682612a4a565b8355505b6001600288020188555050505b5050505050505b565b7f4e487b7100000000000000000000000000000000000000000000000000000000600052603160045260246000fd5b600061329982612137565b91507fffffffffffffffffffffffffffffffffffffffffffffffffffffffffffffffff82036132cb576132ca612de9565b5b600182019050919050565b7f6e6f742061206d656d6265720000000000000000000000000000000000000000600082015250565b600061330c600c836127fb565b9150613317826132d6565b602082019050919050565b6000602082019050818103600083015261333b816132ff565b9050919050565b7f6f6e6c792063616c6c61626c652062792043454f000000000000000000000000600082015250565b60006133786014836127fb565b915061338382613342565b602082019050919050565b600060208201905081810360008301526133a78161336b565b9050919050565b7f4e487b7100000000000000000000000000000000000000000000000000000000600052605160045260246000fdfea26469706673582212207a082e18514f56fc1191bedeee63ecfcb454d8978c46e1eb8e45661f73569ca664736f6c63430008150033",
  "linkReferences": {},
  "deployedLinkReferences": {}
}