{
  "_format": "hh-sol-artifact-1",
  "contractName": "Company",
  "sourceName": "contracts/Company.sol",
  "abi": [
    {
      "inputs": [
        {
          "internalType": "address[]",
          "name": "_boardmembers",
          "type": "address[]"
        },
        {
          "internalType": "address",
          "name": "_CEO",
          "type": "address"
        },
        {
          "internalType": "uint256",
          "name": "_acceptance",
          "type": "uint256"
        }
      ],
      "stateMutability": "payable",
      "type": "constructor"
    },
    {
      "anonymous": false,
      "inputs": [
        {
          "indexed": false,
          "internalType": "address",
          "name": "oldCEO",
          "type": "address"
        },
        {
          "indexed": false,
          "internalType": "address",
          "name": "newCEO",
          "type": "address"
        }
      ],
      "name": "CEOchange",
      "type": "event"
    },
    {
      "anonymous": false,
      "inputs": [
        {
          "indexed": false,
          "internalType": "string",
          "name": "reason",
          "type": "string"
        },
        {
          "indexed": false,
          "internalType": "uint256",
          "name": "amount",
          "type": "uint256"
        },
        {
          "indexed": false,
          "internalType": "uint256",
          "name": "timestamp",
          "type": "uint256"
        }
      ],
      "name": "FundAccepted",
      "type": "event"
    },
    {
      "anonymous": false,
      "inputs": [
        {
          "indexed": false,
          "internalType": "string",
          "name": "reason",
          "type": "string"
        },
        {
          "indexed": false,
          "internalType": "uint256",
          "name": "amount",
          "type": "uint256"
        },
        {
          "indexed": false,
          "internalType": "uint256",
          "name": "timestamp",
          "type": "uint256"
        }
      ],
      "name": "FundRaised",
      "type": "event"
    },
    {
      "anonymous": false,
      "inputs": [
        {
          "indexed": false,
          "internalType": "string",
          "name": "reason",
          "type": "string"
        },
        {
          "indexed": false,
          "internalType": "uint256",
          "name": "amount",
          "type": "uint256"
        },
        {
          "indexed": false,
          "internalType": "uint256",
          "name": "timestamp",
          "type": "uint256"
        }
      ],
      "name": "FundRejected",
      "type": "event"
    },
    {
      "anonymous": false,
      "inputs": [
        {
          "indexed": false,
          "internalType": "uint256",
          "name": "amount",
          "type": "uint256"
        },
        {
          "indexed": false,
          "internalType": "uint256",
          "name": "timestamp",
          "type": "uint256"
        },
        {
          "indexed": false,
          "internalType": "address",
          "name": "to",
          "type": "address"
        }
      ],
      "name": "FundsTransfered",
      "type": "event"
    },
    {
      "inputs": [
        {
          "internalType": "bool",
          "name": "vote",
          "type": "bool"
        }
      ],
      "name": "changeCEO",
      "outputs": [],
      "stateMutability": "nonpayable",
      "type": "function"
    },
    {
      "inputs": [],
      "name": "getCEO",
      "outputs": [
        {
          "internalType": "address",
          "name": "",
          "type": "address"
        }
      ],
      "stateMutability": "view",
      "type": "function"
    },
    {
      "inputs": [],
      "name": "getFailedFunds",
      "outputs": [
        {
          "components": [
            {
              "internalType": "string",
              "name": "reason",
              "type": "string"
            },
            {
              "internalType": "uint256",
              "name": "amount",
              "type": "uint256"
            },
            {
              "internalType": "uint256",
              "name": "timestamp",
              "type": "uint256"
            },
            {
              "internalType": "uint256",
              "name": "votedMembers",
              "type": "uint256"
            },
            {
              "internalType": "bool",
              "name": "isused",
              "type": "bool"
            }
          ],
          "internalType": "struct Company.Fund[]",
          "name": "",
          "type": "tuple[]"
        }
      ],
      "stateMutability": "view",
      "type": "function"
    },
    {
      "inputs": [],
      "name": "getPendingRaiseFunds",
      "outputs": [
        {
          "components": [
            {
              "internalType": "string",
              "name": "reason",
              "type": "string"
            },
            {
              "internalType": "uint256",
              "name": "amount",
              "type": "uint256"
            },
            {
              "internalType": "uint256",
              "name": "timestamp",
              "type": "uint256"
            },
            {
              "internalType": "uint256",
              "name": "votedMembers",
              "type": "uint256"
            },
            {
              "internalType": "bool",
              "name": "isused",
              "type": "bool"
            }
          ],
          "internalType": "struct Company.Fund[]",
          "name": "",
          "type": "tuple[]"
        }
      ],
      "stateMutability": "view",
      "type": "function"
    },
    {
      "inputs": [],
      "name": "getSuccesfullFunds",
      "outputs": [
        {
          "components": [
            {
              "internalType": "string",
              "name": "reason",
              "type": "string"
            },
            {
              "internalType": "uint256",
              "name": "amount",
              "type": "uint256"
            },
            {
              "internalType": "uint256",
              "name": "timestamp",
              "type": "uint256"
            },
            {
              "internalType": "uint256",
              "name": "votedMembers",
              "type": "uint256"
            },
            {
              "internalType": "bool",
              "name": "isused",
              "type": "bool"
            }
          ],
          "internalType": "struct Company.Fund[]",
          "name": "",
          "type": "tuple[]"
        }
      ],
      "stateMutability": "view",
      "type": "function"
    },
    {
      "inputs": [],
      "name": "getlength",
      "outputs": [
        {
          "internalType": "uint256",
          "name": "",
          "type": "uint256"
        }
      ],
      "stateMutability": "view",
      "type": "function"
    },
    {
      "inputs": [
        {
          "internalType": "address",
          "name": "member",
          "type": "address"
        }
      ],
      "name": "isMember",
      "outputs": [
        {
          "internalType": "bool",
          "name": "",
          "type": "bool"
        }
      ],
      "stateMutability": "view",
      "type": "function"
    },
    {
      "inputs": [],
      "name": "listofBoardMembers",
      "outputs": [
        {
          "internalType": "address[]",
          "name": "",
          "type": "address[]"
        }
      ],
      "stateMutability": "view",
      "type": "function"
    },
    {
      "inputs": [
        {
          "internalType": "string",
          "name": "reason",
          "type": "string"
        },
        {
          "internalType": "uint256",
          "name": "amount",
          "type": "uint256"
        }
      ],
      "name": "raiseFund",
      "outputs": [
        {
          "internalType": "uint256",
          "name": "",
          "type": "uint256"
        }
      ],
      "stateMutability": "nonpayable",
      "type": "function"
    },
    {
      "inputs": [
        {
          "internalType": "address",
          "name": "member",
          "type": "address"
        }
      ],
      "name": "setnextCEO",
      "outputs": [],
      "stateMutability": "nonpayable",
      "type": "function"
    },
    {
      "inputs": [
        {
          "internalType": "uint256",
          "name": "timestamp",
          "type": "uint256"
        },
        {
          "internalType": "uint256",
          "name": "index",
          "type": "uint256"
        },
        {
          "internalType": "bool",
          "name": "vote",
          "type": "bool"
        }
      ],
      "name": "voteRaiseFund",
      "outputs": [],
      "stateMutability": "nonpayable",
      "type": "function"
    },
    {
      "inputs": [
        {
          "internalType": "uint256",
          "name": "index",
          "type": "uint256"
        },
        {
          "internalType": "address",
          "name": "to",
          "type": "address"
        }
      ],
      "name": "withdrawRaisedFund",
      "outputs": [],
      "stateMutability": "payable",
      "type": "function"
    },
    {
      "stateMutability": "payable",
      "type": "receive"
    }
  ],
  "bytecode": "0x60a060405260405162003873380380620038738339818101604052810190620000299190620003fa565b60058351101562000071576040517f08c379a00000000000000000000000000000000000000000000000000000000081526004016200006890620004d6565b60405180910390fd5b6028811015620000b8576040517f08c379a0000000000000000000000000000000000000000000000000000000008152600401620000af9062000548565b60405180910390fd5b8260089080519060200190620000d092919062000123565b5081600960006101000a81548173ffffffffffffffffffffffffffffffffffffffff021916908373ffffffffffffffffffffffffffffffffffffffff16021790555080608081815250505050506200056a565b8280548282559060005260206000209081019282156200019f579160200282015b828111156200019e5782518260006101000a81548173ffffffffffffffffffffffffffffffffffffffff021916908373ffffffffffffffffffffffffffffffffffffffff1602179055509160200191906001019062000144565b5b509050620001ae9190620001b2565b5090565b5b80821115620001cd576000816000905550600101620001b3565b5090565b6000604051905090565b600080fd5b600080fd5b600080fd5b6000601f19601f8301169050919050565b7f4e487b7100000000000000000000000000000000000000000000000000000000600052604160045260246000fd5b6200023582620001ea565b810181811067ffffffffffffffff82111715620002575762000256620001fb565b5b80604052505050565b60006200026c620001d1565b90506200027a82826200022a565b919050565b600067ffffffffffffffff8211156200029d576200029c620001fb565b5b602082029050602081019050919050565b600080fd5b600073ffffffffffffffffffffffffffffffffffffffff82169050919050565b6000620002e082620002b3565b9050919050565b620002f281620002d3565b8114620002fe57600080fd5b50565b6000815190506200031281620002e7565b92915050565b60006200032f62000329846200027f565b62000260565b90508083825260208201905060208402830185811115620003555762000354620002ae565b5b835b818110156200038257806200036d888262000301565b84526020840193505060208101905062000357565b5050509392505050565b600082601f830112620003a457620003a3620001e5565b5b8151620003b684826020860162000318565b91505092915050565b6000819050919050565b620003d481620003bf565b8114620003e057600080fd5b50565b600081519050620003f481620003c9565b92915050565b600080600060608486031215620004165762000415620001db565b5b600084015167ffffffffffffffff811115620004375762000436620001e0565b5b62000445868287016200038c565b9350506020620004588682870162000301565b92505060406200046b86828701620003e3565b9150509250925092565b600082825260208201905092915050565b7f4d696e203520426f617264204d656d6265727300000000000000000000000000600082015250565b6000620004be60138362000475565b9150620004cb8262000486565b602082019050919050565b60006020820190508181036000830152620004f181620004af565b9050919050565b7f6d696e203430252073686f756c64206163636570740000000000000000000000600082015250565b60006200053060158362000475565b91506200053d82620004f8565b602082019050919050565b60006020820190508181036000830152620005638162000521565b9050919050565b6080516132d86200059b60003960008181610ae601528181610d2c015281816112be015261172c01526132d86000f3fe6080604052600436106100ab5760003560e01c8063701c0f0611610064578063701c0f06146101c75780637c0feb26146101e3578063a16d35981461020c578063a230c52414610237578063c5c8c25d14610274578063c8b0e68d1461029f576100b2565b806317fba212146100b75780631dd9c41a146100f45780631e0686cb1461011f5780631fb661df1461014a5780632e0abcb614610173578063550c0eb91461019c576100b2565b366100b257005b600080fd5b3480156100c357600080fd5b506100de60048036038101906100d991906121f8565b6102ca565b6040516100eb9190612263565b60405180910390f35b34801561010057600080fd5b506101096104b0565b604051610116919061236e565b60405180910390f35b34801561012b57600080fd5b50610134610557565b6040516101419190612571565b60405180910390f35b34801561015657600080fd5b50610171600480360381019061016c91906125bf565b61069a565b005b34801561017f57600080fd5b5061019a60048036038101906101959190612618565b6107c2565b005b3480156101a857600080fd5b506101b1610dc9565b6040516101be9190612571565b60405180910390f35b6101e160048036038101906101dc9190612645565b610f0c565b005b3480156101ef57600080fd5b5061020a60048036038101906102059190612685565b611104565b005b34801561021857600080fd5b50610221611b28565b60405161022e9190612263565b60405180910390f35b34801561024357600080fd5b5061025e600480360381019061025991906125bf565b611b35565b60405161026b91906126e7565b60405180910390f35b34801561028057600080fd5b50610289611c19565b6040516102969190612571565b60405180910390f35b3480156102ab57600080fd5b506102b4611d65565b6040516102c19190612711565b60405180910390f35b60006102d66000611d8f565b504782111561031a576040517f08c379a000000000000000000000000000000000000000000000000000000000815260040161031190612789565b60405180910390fd5b60006040518060a00160405280858152602001848152602001428152602001600181526020016000151581525090506103568160800151611e89565b6002819080600181540180825580915050600190039060005260206000209060050201600090919091909150600082015181600001908161039791906129b5565b5060208201518160010155604082015181600201556060820151816003015560808201518160040160006101000a81548160ff02191690831515021790555050506001600660008360400151815260200190815260200160002060003373ffffffffffffffffffffffffffffffffffffffff1673ffffffffffffffffffffffffffffffffffffffff16815260200190815260200160002060006101000a81548160ff02191690831515021790555060016007600083604001518152602001908152602001600020819055507fc2c1dd22ccd74042bb1839a341a380b900234ef0edd1de24c746fb3b243fd8788484836040015160405161049993929190612ac0565b60405180910390a160028054905091505092915050565b60606104bc6001611d8f565b6104cb576104c933611b35565b505b600880548060200260200160405190810160405280929190818152602001828054801561054d57602002820191906000526020600020905b8160009054906101000a900473ffffffffffffffffffffffffffffffffffffffff1673ffffffffffffffffffffffffffffffffffffffff1681526020019060010190808311610503575b5050505050905090565b60606105636001611d8f565b6105725761057033611b35565b505b6001805480602002602001604051908101604052809291908181526020016000905b8282101561069157838290600052602060002090600502016040518060a00160405290816000820180546105c7906127d8565b80601f01602080910402602001604051908101604052809291908181526020018280546105f3906127d8565b80156106405780601f1061061557610100808354040283529160200191610640565b820191906000526020600020905b81548152906001019060200180831161062357829003601f168201915b505050505081526020016001820154815260200160028201548152602001600382015481526020016004820160009054906101000a900460ff16151515158152505081526020019060010190610594565b50505050905090565b600a60009054906101000a900473ffffffffffffffffffffffffffffffffffffffff1673ffffffffffffffffffffffffffffffffffffffff16600073ffffffffffffffffffffffffffffffffffffffff161461072b576040517f08c379a000000000000000000000000000000000000000000000000000000000815260040161072290612b4a565b60405180910390fd5b61073433611b35565b5061073f6000611d8f565b61077e576040517f08c379a000000000000000000000000000000000000000000000000000000000815260040161077590612bb6565b60405180910390fd5b80600a60006101000a81548173ffffffffffffffffffffffffffffffffffffffff021916908373ffffffffffffffffffffffffffffffffffffffff16021790555050565b6107cc6001611d8f565b1561080c576040517f08c379a000000000000000000000000000000000000000000000000000000000815260040161080390612c22565b60405180910390fd5b600073ffffffffffffffffffffffffffffffffffffffff16600a60009054906101000a900473ffffffffffffffffffffffffffffffffffffffff1673ffffffffffffffffffffffffffffffffffffffff160361089d576040517f08c379a000000000000000000000000000000000000000000000000000000000815260040161089490612c8e565b60405180910390fd5b6108a633611b35565b5060036000600960009054906101000a900473ffffffffffffffffffffffffffffffffffffffff1673ffffffffffffffffffffffffffffffffffffffff1673ffffffffffffffffffffffffffffffffffffffff16815260200190815260200160002060003373ffffffffffffffffffffffffffffffffffffffff1673ffffffffffffffffffffffffffffffffffffffff16815260200190815260200160002060009054906101000a900460ff1615610993576040517f08c379a000000000000000000000000000000000000000000000000000000000815260040161098a90612cfa565b60405180910390fd5b600160036000600960009054906101000a900473ffffffffffffffffffffffffffffffffffffffff1673ffffffffffffffffffffffffffffffffffffffff1673ffffffffffffffffffffffffffffffffffffffff16815260200190815260200160002060003373ffffffffffffffffffffffffffffffffffffffff1673ffffffffffffffffffffffffffffffffffffffff16815260200190815260200160002060006101000a81548160ff0219169083151502179055508015610aca57600160046000600960009054906101000a900473ffffffffffffffffffffffffffffffffffffffff1673ffffffffffffffffffffffffffffffffffffffff1673ffffffffffffffffffffffffffffffffffffffff1681526020019081526020016000206000828254610ac29190612d49565b925050819055505b600160056000828254610add9190612d49565b925050819055507f000000000000000000000000000000000000000000000000000000000000000060088054905060046000600960009054906101000a900473ffffffffffffffffffffffffffffffffffffffff1673ffffffffffffffffffffffffffffffffffffffff1673ffffffffffffffffffffffffffffffffffffffff168152602001908152602001600020546064610b799190612d7d565b610b839190612dee565b10610cb7577f430339c957f7f1f8ca89a5a2a031d19c1cf40833c3cfbeb301a561c11519aa14600960009054906101000a900473ffffffffffffffffffffffffffffffffffffffff16600a60009054906101000a900473ffffffffffffffffffffffffffffffffffffffff16604051610bfd929190612e1f565b60405180910390a1600a60009054906101000a900473ffffffffffffffffffffffffffffffffffffffff16600960006101000a81548173ffffffffffffffffffffffffffffffffffffffff021916908373ffffffffffffffffffffffffffffffffffffffff1602179055506000600a60006101000a81548173ffffffffffffffffffffffffffffffffffffffff021916908373ffffffffffffffffffffffffffffffffffffffff1602179055506000600581905550610dc6565b600060046000600960009054906101000a900473ffffffffffffffffffffffffffffffffffffffff1673ffffffffffffffffffffffffffffffffffffffff1673ffffffffffffffffffffffffffffffffffffffff16815260200190815260200160002054600554610d289190612e48565b90507f00000000000000000000000000000000000000000000000000000000000000006064610d579190612e48565b600880549050826064610d6a9190612d7d565b610d749190612dee565b10610dc4576000600a60006101000a81548173ffffffffffffffffffffffffffffffffffffffff021916908373ffffffffffffffffffffffffffffffffffffffff16021790555060006005819055505b505b50565b6060610dd56001611d8f565b610de457610de233611b35565b505b6002805480602002602001604051908101604052809291908181526020016000905b82821015610f0357838290600052602060002090600502016040518060a0016040529081600082018054610e39906127d8565b80601f0160208091040260200160405190810160405280929190818152602001828054610e65906127d8565b8015610eb25780601f10610e8757610100808354040283529160200191610eb2565b820191906000526020600020905b815481529060010190602001808311610e9557829003601f168201915b505050505081526020016001820154815260200160028201548152602001600382015481526020016004820160009054906101000a900460ff16151515158152505081526020019060010190610e06565b50505050905090565b600180549050821015610f54576040517f08c379a0000000000000000000000000000000000000000000000000000000008152600401610f4b90612ec8565b60405180910390fd5b60018281548110610f6857610f67612ee8565b5b906000526020600020906005020160040160009054906101000a900460ff1615610fc7576040517f08c379a0000000000000000000000000000000000000000000000000000000008152600401610fbe90612f63565b60405180910390fd5b610fd16000611d8f565b508073ffffffffffffffffffffffffffffffffffffffff166108fc6001848154811061100057610fff612ee8565b5b9060005260206000209060050201600101549081150290604051600060405180830381858888f1935050505015801561103d573d6000803e3d6000fd5b50600180838154811061105357611052612ee8565b5b906000526020600020906005020160040160006101000a81548160ff0219169083151502179055507fdf546d9e8a0d1da259b593d60a75e8f7448a72080bf5502b790ceb4cc22a51e0600183815481106110b0576110af612ee8565b5b906000526020600020906005020160010154600184815481106110d6576110d5612ee8565b5b906000526020600020906005020160020154836040516110f893929190612f83565b60405180910390a15050565b61110d33611b35565b506006600084815260200190815260200160002060003373ffffffffffffffffffffffffffffffffffffffff1673ffffffffffffffffffffffffffffffffffffffff16815260200190815260200160002060009054906101000a900460ff16156111ac576040517f08c379a00000000000000000000000000000000000000000000000000000000081526004016111a390613006565b60405180910390fd5b6001600283815481106111c2576111c1612ee8565b5b906000526020600020906005020160030160008282546111e29190612d49565b9250508190555060016006600085815260200190815260200160002060003373ffffffffffffffffffffffffffffffffffffffff1673ffffffffffffffffffffffffffffffffffffffff16815260200190815260200160002060006101000a81548160ff021916908315150217905550801561128457600160076000858152602001908152602001600020600082825461127c9190612d49565b925050819055505b6112bc600880549050606460076000878152602001908152602001600020546112ad9190612d7d565b6112b79190612dee565b611f22565b7f0000000000000000000000000000000000000000000000000000000000000000600880549050606460076000878152602001908152602001600020546113039190612d7d565b61130d9190612dee565b106116bd5760016002838154811061132857611327612ee8565b5b9060005260206000209060050201908060018154018082558091505060019003906000526020600020906005020160009091909190915060008201816000019081611373919061303c565b506001820154816001015560028201548160020155600382015481600301556004820160009054906101000a900460ff168160040160006101000a81548160ff02191690831515021790555050508160016002805490506113d49190612e48565b036114455760028054806113eb576113ea613124565b5b6001900381819060005260206000209060050201600080820160006114109190612001565b6001820160009055600282016000905560038201600090556004820160006101000a81549060ff021916905550509055611565565b600260016002805490506114599190612e48565b8154811061146a57611469612ee8565b5b90600052602060002090600502016002838154811061148c5761148b612ee8565b5b9060005260206000209060050201600082018160000190816114ae919061303c565b506001820154816001015560028201548160020155600382015481600301556004820160009054906101000a900460ff168160040160006101000a81548160ff021916908315150217905550905050600280548061150f5761150e613124565b5b6001900381819060005260206000209060050201600080820160006115349190612001565b6001820160009055600282016000905560038201600090556004820160006101000a81549060ff0219169055505090555b600060018080805490506115799190612e48565b8154811061158a57611589612ee8565b5b90600052602060002090600502016040518060a00160405290816000820180546115b3906127d8565b80601f01602080910402602001604051908101604052809291908181526020018280546115df906127d8565b801561162c5780601f106116015761010080835404028352916020019161162c565b820191906000526020600020905b81548152906001019060200180831161160f57829003601f168201915b505050505081526020016001820154815260200160028201548152602001600382015481526020016004820160009054906101000a900460ff16151515158152505090507fcb7cef30ebb80bcfcf69420814edf2dc4a9a91cf8066b3a4a319c67228fb8ad18160000151826020015183604001516040516116af93929190612ac0565b60405180910390a150611b23565b60006007600085815260200190815260200160002054600284815481106116e7576116e6612ee8565b5b9060005260206000209060050201600301546117039190612e48565b905061172a60088054905060648361171b9190612d7d565b6117259190612dee565b611f22565b7f000000000000000000000000000000000000000000000000000000000000000060646117579190612e48565b60088054905060648361176a9190612d7d565b6117749190612dee565b10611b215760006002848154811061178f5761178e612ee8565b5b90600052602060002090600502019080600181540180825580915050600190039060005260206000209060050201600090919091909150600082018160000190816117da919061303c565b506001820154816001015560028201548160020155600382015481600301556004820160009054906101000a900460ff168160040160006101000a81548160ff021916908315150217905550505082600160028054905061183b9190612e48565b036118ac57600280548061185257611851613124565b5b6001900381819060005260206000209060050201600080820160006118779190612001565b6001820160009055600282016000905560038201600090556004820160006101000a81549060ff0219169055505090556119cc565b600260016002805490506118c09190612e48565b815481106118d1576118d0612ee8565b5b9060005260206000209060050201600284815481106118f3576118f2612ee8565b5b906000526020600020906005020160008201816000019081611915919061303c565b506001820154816001015560028201548160020155600382015481600301556004820160009054906101000a900460ff168160040160006101000a81548160ff021916908315150217905550905050600280548061197657611975613124565b5b60019003818190600052602060002090600502016000808201600061199b9190612001565b6001820160009055600282016000905560038201600090556004820160006101000a81549060ff0219169055505090555b60008060016000805490506119e19190612e48565b815481106119f2576119f1612ee8565b5b90600052602060002090600502016040518060a0016040529081600082018054611a1b906127d8565b80601f0160208091040260200160405190810160405280929190818152602001828054611a47906127d8565b8015611a945780601f10611a6957610100808354040283529160200191611a94565b820191906000526020600020905b815481529060010190602001808311611a7757829003601f168201915b505050505081526020016001820154815260200160028201548152602001600382015481526020016004820160009054906101000a900460ff16151515158152505090507ff8d395925b7473a68cba2a5aa65c337b2245b79b7d188215d6f7f4de8fdb92d8816000015182602001518360400151604051611b1793929190612ac0565b60405180910390a1505b505b505050565b6000600280549050905090565b600080600090505b600880549050811015611bd8578273ffffffffffffffffffffffffffffffffffffffff1660088281548110611b7557611b74612ee8565b5b9060005260206000200160009054906101000a900473ffffffffffffffffffffffffffffffffffffffff1673ffffffffffffffffffffffffffffffffffffffff1603611bc5576001915050611c14565b8080611bd090613153565b915050611b3d565b506040517f08c379a0000000000000000000000000000000000000000000000000000000008152600401611c0b906131e7565b60405180910390fd5b919050565b6060611c256001611d8f565b611c3457611c3233611b35565b505b611c3d5a611f22565b6000805480602002602001604051908101604052809291908181526020016000905b82821015611d5c57838290600052602060002090600502016040518060a0016040529081600082018054611c92906127d8565b80601f0160208091040260200160405190810160405280929190818152602001828054611cbe906127d8565b8015611d0b5780601f10611ce057610100808354040283529160200191611d0b565b820191906000526020600020905b815481529060010190602001808311611cee57829003601f168201915b505050505081526020016001820154815260200160028201548152602001600382015481526020016004820160009054906101000a900460ff16151515158152505081526020019060010190611c5f565b50505050905090565b6000600960009054906101000a900473ffffffffffffffffffffffffffffffffffffffff16905090565b60008115611def57600960009054906101000a900473ffffffffffffffffffffffffffffffffffffffff1673ffffffffffffffffffffffffffffffffffffffff163373ffffffffffffffffffffffffffffffffffffffff16149050611e84565b600960009054906101000a900473ffffffffffffffffffffffffffffffffffffffff1673ffffffffffffffffffffffffffffffffffffffff163373ffffffffffffffffffffffffffffffffffffffff1614611e7f576040517f08c379a0000000000000000000000000000000000000000000000000000000008152600401611e7690613253565b60405180910390fd5b600190505b919050565b611f1f81604051602401611e9d91906126e7565b6040516020818303038152906040527f32458eed000000000000000000000000000000000000000000000000000000007bffffffffffffffffffffffffffffffffffffffffffffffffffffffff19166020820180517bffffffffffffffffffffffffffffffffffffffffffffffffffffffff8381831617835250505050611fbb565b50565b611fb881604051602401611f369190612263565b6040516020818303038152906040527ff82c50f1000000000000000000000000000000000000000000000000000000007bffffffffffffffffffffffffffffffffffffffffffffffffffffffff19166020820180517bffffffffffffffffffffffffffffffffffffffffffffffffffffffff8381831617835250505050611fbb565b50565b611fd281611fca611fd5611ff6565b63ffffffff16565b50565b60006a636f6e736f6c652e6c6f679050600080835160208501845afa505050565b612041819050919050565b50805461200d906127d8565b6000825580601f1061201f575061203e565b601f01602090049060005260206000209081019061203d919061204b565b5b50565b612049613273565b565b5b8082111561206457600081600090555060010161204c565b5090565b6000604051905090565b600080fd5b600080fd5b600080fd5b600080fd5b6000601f19601f8301169050919050565b7f4e487b7100000000000000000000000000000000000000000000000000000000600052604160045260246000fd5b6120cf82612086565b810181811067ffffffffffffffff821117156120ee576120ed612097565b5b80604052505050565b6000612101612068565b905061210d82826120c6565b919050565b600067ffffffffffffffff82111561212d5761212c612097565b5b61213682612086565b9050602081019050919050565b82818337600083830152505050565b600061216561216084612112565b6120f7565b90508281526020810184848401111561218157612180612081565b5b61218c848285612143565b509392505050565b600082601f8301126121a9576121a861207c565b5b81356121b9848260208601612152565b91505092915050565b6000819050919050565b6121d5816121c2565b81146121e057600080fd5b50565b6000813590506121f2816121cc565b92915050565b6000806040838503121561220f5761220e612072565b5b600083013567ffffffffffffffff81111561222d5761222c612077565b5b61223985828601612194565b925050602061224a858286016121e3565b9150509250929050565b61225d816121c2565b82525050565b60006020820190506122786000830184612254565b92915050565b600081519050919050565b600082825260208201905092915050565b6000819050602082019050919050565b600073ffffffffffffffffffffffffffffffffffffffff82169050919050565b60006122d5826122aa565b9050919050565b6122e5816122ca565b82525050565b60006122f783836122dc565b60208301905092915050565b6000602082019050919050565b600061231b8261227e565b6123258185612289565b93506123308361229a565b8060005b8381101561236157815161234888826122eb565b975061235383612303565b925050600181019050612334565b5085935050505092915050565b600060208201905081810360008301526123888184612310565b905092915050565b600081519050919050565b600082825260208201905092915050565b6000819050602082019050919050565b600081519050919050565b600082825260208201905092915050565b60005b838110156123f65780820151818401526020810190506123db565b60008484015250505050565b600061240d826123bc565b61241781856123c7565b93506124278185602086016123d8565b61243081612086565b840191505092915050565b612444816121c2565b82525050565b60008115159050919050565b61245f8161244a565b82525050565b600060a08301600083015184820360008601526124828282612402565b9150506020830151612497602086018261243b565b5060408301516124aa604086018261243b565b5060608301516124bd606086018261243b565b5060808301516124d06080860182612456565b508091505092915050565b60006124e78383612465565b905092915050565b6000602082019050919050565b600061250782612390565b612511818561239b565b935083602082028501612523856123ac565b8060005b8581101561255f578484038952815161254085826124db565b945061254b836124ef565b925060208a01995050600181019050612527565b50829750879550505050505092915050565b6000602082019050818103600083015261258b81846124fc565b905092915050565b61259c816122ca565b81146125a757600080fd5b50565b6000813590506125b981612593565b92915050565b6000602082840312156125d5576125d4612072565b5b60006125e3848285016125aa565b91505092915050565b6125f58161244a565b811461260057600080fd5b50565b600081359050612612816125ec565b92915050565b60006020828403121561262e5761262d612072565b5b600061263c84828501612603565b91505092915050565b6000806040838503121561265c5761265b612072565b5b600061266a858286016121e3565b925050602061267b858286016125aa565b9150509250929050565b60008060006060848603121561269e5761269d612072565b5b60006126ac868287016121e3565b93505060206126bd868287016121e3565b92505060406126ce86828701612603565b9150509250925092565b6126e18161244a565b82525050565b60006020820190506126fc60008301846126d8565b92915050565b61270b816122ca565b82525050565b60006020820190506127266000830184612702565b92915050565b600082825260208201905092915050565b7f696e73756666696369656e742062616c616e6365000000000000000000000000600082015250565b600061277360148361272c565b915061277e8261273d565b602082019050919050565b600060208201905081810360008301526127a281612766565b9050919050565b7f4e487b7100000000000000000000000000000000000000000000000000000000600052602260045260246000fd5b600060028204905060018216806127f057607f821691505b602082108103612803576128026127a9565b5b50919050565b60008190508160005260206000209050919050565b60006020601f8301049050919050565b600082821b905092915050565b60006008830261286b7fffffffffffffffffffffffffffffffffffffffffffffffffffffffffffffffff8261282e565b612875868361282e565b95508019841693508086168417925050509392505050565b6000819050919050565b60006128b26128ad6128a8846121c2565b61288d565b6121c2565b9050919050565b6000819050919050565b6128cc83612897565b6128e06128d8826128b9565b84845461283b565b825550505050565b600090565b6128f56128e8565b6129008184846128c3565b505050565b5b81811015612924576129196000826128ed565b600181019050612906565b5050565b601f8211156129695761293a81612809565b6129438461281e565b81016020851015612952578190505b61296661295e8561281e565b830182612905565b50505b505050565b600082821c905092915050565b600061298c6000198460080261296e565b1980831691505092915050565b60006129a5838361297b565b9150826002028217905092915050565b6129be826123bc565b67ffffffffffffffff8111156129d7576129d6612097565b5b6129e182546127d8565b6129ec828285612928565b600060209050601f831160018114612a1f5760008415612a0d578287015190505b612a178582612999565b865550612a7f565b601f198416612a2d86612809565b60005b82811015612a5557848901518255600182019150602085019450602081019050612a30565b86831015612a725784890151612a6e601f89168261297b565b8355505b6001600288020188555050505b505050505050565b6000612a92826123bc565b612a9c818561272c565b9350612aac8185602086016123d8565b612ab581612086565b840191505092915050565b60006060820190508181036000830152612ada8186612a87565b9050612ae96020830185612254565b612af66040830184612254565b949350505050565b7f6e65787443454f20736574746564000000000000000000000000000000000000600082015250565b6000612b34600e8361272c565b9150612b3f82612afe565b602082019050919050565b60006020820190508181036000830152612b6381612b27565b9050919050565b7f43454f2063616e27742063616c6c207468697300000000000000000000000000600082015250565b6000612ba060138361272c565b9150612bab82612b6a565b602082019050919050565b60006020820190508181036000830152612bcf81612b93565b9050919050565b7f43454f2063616e277420766f7465000000000000000000000000000000000000600082015250565b6000612c0c600e8361272c565b9150612c1782612bd6565b602082019050919050565b60006020820190508181036000830152612c3b81612bff565b9050919050565b7f706c6561736520736574206e6578742043454f00000000000000000000000000600082015250565b6000612c7860138361272c565b9150612c8382612c42565b602082019050919050565b60006020820190508181036000830152612ca781612c6b565b9050919050565b7f616c726561647920766f74656400000000000000000000000000000000000000600082015250565b6000612ce4600d8361272c565b9150612cef82612cae565b602082019050919050565b60006020820190508181036000830152612d1381612cd7565b9050919050565b7f4e487b7100000000000000000000000000000000000000000000000000000000600052601160045260246000fd5b6000612d54826121c2565b9150612d5f836121c2565b9250828201905080821115612d7757612d76612d1a565b5b92915050565b6000612d88826121c2565b9150612d93836121c2565b9250828202612da1816121c2565b91508282048414831517612db857612db7612d1a565b5b5092915050565b7f4e487b7100000000000000000000000000000000000000000000000000000000600052601260045260246000fd5b6000612df9826121c2565b9150612e04836121c2565b925082612e1457612e13612dbf565b5b828204905092915050565b6000604082019050612e346000830185612702565b612e416020830184612702565b9392505050565b6000612e53826121c2565b9150612e5e836121c2565b9250828203905081811115612e7657612e75612d1a565b5b92915050565b7f6e6f742076616c69640000000000000000000000000000000000000000000000600082015250565b6000612eb260098361272c565b9150612ebd82612e7c565b602082019050919050565b60006020820190508181036000830152612ee181612ea5565b9050919050565b7f4e487b7100000000000000000000000000000000000000000000000000000000600052603260045260246000fd5b7f616c726561647920757365640000000000000000000000000000000000000000600082015250565b6000612f4d600c8361272c565b9150612f5882612f17565b602082019050919050565b60006020820190508181036000830152612f7c81612f40565b9050919050565b6000606082019050612f986000830186612254565b612fa56020830185612254565b612fb26040830184612702565b949350505050565b7f766f746564210000000000000000000000000000000000000000000000000000600082015250565b6000612ff060068361272c565b9150612ffb82612fba565b602082019050919050565b6000602082019050818103600083015261301f81612fe3565b9050919050565b600081549050613035816127d8565b9050919050565b81810361304a575050613122565b61305382613026565b67ffffffffffffffff81111561306c5761306b612097565b5b61307682546127d8565b613081828285612928565b6000601f8311600181146130b0576000841561309e578287015490505b6130a88582612999565b86555061311b565b601f1984166130be87612809565b96506130c986612809565b60005b828110156130f1578489015482556001820191506001850194506020810190506130cc565b8683101561310e578489015461310a601f89168261297b565b8355505b6001600288020188555050505b5050505050505b565b7f4e487b7100000000000000000000000000000000000000000000000000000000600052603160045260246000fd5b600061315e826121c2565b91507fffffffffffffffffffffffffffffffffffffffffffffffffffffffffffffffff82036131905761318f612d1a565b5b600182019050919050565b7f6e6f742061206d656d6265720000000000000000000000000000000000000000600082015250565b60006131d1600c8361272c565b91506131dc8261319b565b602082019050919050565b60006020820190508181036000830152613200816131c4565b9050919050565b7f6f6e6c792063616c6c61626c652062792043454f000000000000000000000000600082015250565b600061323d60148361272c565b915061324882613207565b602082019050919050565b6000602082019050818103600083015261326c81613230565b9050919050565b7f4e487b7100000000000000000000000000000000000000000000000000000000600052605160045260246000fdfea2646970667358221220d081e8f50fd7b4b426e9ef899441ed0f2d2b631f7764bf6b4adb67c5bc66fbf264736f6c63430008150033",
  "linkReferences": {},
  "deployedLinkReferences": {}
}